{
  "contractName": "CrossChainTransaction",
  "abi": [
    {
      "inputs": [],
      "payable": false,
      "stateMutability": "nonpayable",
      "type": "constructor"
    },
    {
      "anonymous": false,
      "inputs": [
        {
          "indexed": false,
          "internalType": "bytes32",
          "name": "txHash",
          "type": "bytes32"
        },
        {
          "indexed": false,
          "internalType": "uint8",
          "name": "state",
          "type": "uint8"
        }
      ],
      "name": "onChangeTxState",
      "type": "event"
    },
    {
      "anonymous": false,
      "inputs": [
        {
          "indexed": false,
          "internalType": "uint256",
          "name": "fromChainID",
          "type": "uint256"
        },
        {
          "indexed": false,
          "internalType": "uint256",
          "name": "toChainID",
          "type": "uint256"
        },
        {
          "indexed": false,
          "internalType": "string",
          "name": "methods",
          "type": "string"
        },
        {
          "indexed": false,
          "internalType": "uint256",
          "name": "timestamp",
          "type": "uint256"
        },
        {
          "indexed": false,
          "internalType": "string",
          "name": "data",
          "type": "string"
        }
      ],
      "name": "sendCrossTransaction",
      "type": "event"
    },
    {
      "constant": false,
      "inputs": [
        {
          "internalType": "uint256",
          "name": "fromChainID",
          "type": "uint256"
        },
        {
          "internalType": "uint256",
          "name": "toChainID",
          "type": "uint256"
        },
        {
          "internalType": "string",
          "name": "methods",
          "type": "string"
        },
        {
          "internalType": "string",
          "name": "data",
          "type": "string"
        },
        {
          "internalType": "uint256",
          "name": "timestamp",
          "type": "uint256"
        }
      ],
      "name": "sendCrossChainTransaction",
      "outputs": [],
      "payable": false,
      "stateMutability": "nonpayable",
      "type": "function"
    },
    {
      "constant": false,
      "inputs": [
        {
          "internalType": "bytes32",
          "name": "txHash",
          "type": "bytes32"
        },
        {
          "internalType": "uint8",
          "name": "state",
          "type": "uint8"
        },
        {
          "internalType": "uint256",
          "name": "timestamp",
          "type": "uint256"
        }
      ],
      "name": "changeTxState",
      "outputs": [],
      "payable": false,
      "stateMutability": "nonpayable",
      "type": "function"
    },
    {
      "constant": true,
      "inputs": [
        {
          "internalType": "bytes32",
          "name": "txHash",
          "type": "bytes32"
        }
      ],
      "name": "getTxInsertTime",
      "outputs": [
        {
          "internalType": "uint256",
          "name": "time",
          "type": "uint256"
        }
      ],
      "payable": false,
      "stateMutability": "view",
      "type": "function"
    },
    {
      "constant": true,
      "inputs": [
        {
          "internalType": "bytes32",
          "name": "txHash",
          "type": "bytes32"
        }
      ],
      "name": "getTxRecentState",
      "outputs": [
        {
          "internalType": "uint8",
          "name": "state",
          "type": "uint8"
        }
      ],
      "payable": false,
      "stateMutability": "view",
      "type": "function"
    }
  ],
  "bytecode": "0x608060405234801561001057600080fd5b50336000806101000a81548173ffffffffffffffffffffffffffffffffffffffff021916908373ffffffffffffffffffffffffffffffffffffffff160217905550610769806100606000396000f3fe608060405234801561001057600080fd5b506004361061004c5760003560e01c8063430446c2146100515780634f3611091461009357806391a9c9a714610203578063d98847751461024b575b600080fd5b61007d6004803603602081101561006757600080fd5b8101908080359060200190929190505050610290565b6040518082815260200191505060405180910390f35b610201600480360360a08110156100a957600080fd5b810190808035906020019092919080359060200190929190803590602001906401000000008111156100da57600080fd5b8201836020820111156100ec57600080fd5b8035906020019184600183028401116401000000008311171561010e57600080fd5b91908080601f016020809104026020016040519081016040528093929190818152602001838380828437600081840152601f19601f8201169050808301925050505050505091929192908035906020019064010000000081111561017157600080fd5b82018360208201111561018357600080fd5b803590602001918460018302840111640100000000831117156101a557600080fd5b91908080601f016020809104026020016040519081016040528093929190818152602001838380828437600081840152601f19601f820116905080830192505050505050509192919290803590602001909291905050506102ad565b005b61022f6004803603602081101561021957600080fd5b81019080803590602001909291905050506105a4565b604051808260ff1660ff16815260200191505060405180910390f35b61028e6004803603606081101561026157600080fd5b8101908080359060200190929190803560ff169060200190929190803590602001909291905050506105ce565b005b600060026000838152602001908152602001600020549050919050565b6000809054906101000a900473ffffffffffffffffffffffffffffffffffffffff1673ffffffffffffffffffffffffffffffffffffffff163373ffffffffffffffffffffffffffffffffffffffff1614610352576040517f08c379a00000000000000000000000000000000000000000000000000000000081526004018080602001828103825260338152602001806107026033913960400191505060405180910390fd5b6000858585856040516020018085815260200184815260200183805190602001908083835b6020831061039a5780518252602082019150602081019050602083039250610377565b6001836020036101000a03801982511681845116808217855250505050505090500182805190602001908083835b602083106103eb57805182526020820191506020810190506020830392506103c8565b6001836020036101000a0380198251168184511680821785525050505050509050019450505050506040516020818303038152906040528051906020012090506000600481111561043857fe5b6001600083815260200190815260200160002060006101000a81548160ff021916908360ff1602179055508160026000838152602001908152602001600020819055507f384abcca5343e986cd3ec9947acf094bafe58fd0f4654cf5dc53873f055103fa8686868587604051808681526020018581526020018060200184815260200180602001838103835286818151815260200191508051906020019080838360005b838110156104f75780820151818401526020810190506104dc565b50505050905090810190601f1680156105245780820380516001836020036101000a031916815260200191505b50838103825284818151815260200191508051906020019080838360005b8381101561055d578082015181840152602081019050610542565b50505050905090810190601f16801561058a5780820380516001836020036101000a031916815260200191505b5097505050505050505060405180910390a1505050505050565b60006001600083815260200190815260200160002060009054906101000a900460ff169050919050565b6000809054906101000a900473ffffffffffffffffffffffffffffffffffffffff1673ffffffffffffffffffffffffffffffffffffffff163373ffffffffffffffffffffffffffffffffffffffff1614610673576040517f08c379a00000000000000000000000000000000000000000000000000000000081526004018080602001828103825260338152602001806107026033913960400191505060405180910390fd5b816001600085815260200190815260200160002060006101000a81548160ff021916908360ff1602179055508060026000858152602001908152602001600020819055507fb60514380d30d6dc350613dd6ae8574068bf6135e707ffcc512f61c5a36a60ef8383604051808381526020018260ff1660ff1681526020019250505060405180910390a150505056fe546865206163636f756e74206973206e6f7420617070726f76656420746f20696e766f6b6520746869732066756e6374696f6ea265627a7a72315820a8d616e931f1b984e133f474c381281a7b39581c33f205c80efae2a5f2aed6a964736f6c63430005100032",
  "source": "pragma solidity >=0.4.21 <0.7.0;\r\n\r\ncontract CrossChainTransaction {\r\n\r\n    enum State {\r\n        PRE_PREPARE,        // 0\r\n        PREPARE,            // 1\r\n        PRE_COMMIT,         // 2\r\n        COMMIT,             // 3\r\n        REVOKE              // 4\r\n    }\r\n\r\n    bytes constant prefix = \"\\x19Ethereum Signed Message:\\n\";\r\n    address private deployer;\r\n\r\n    mapping( bytes32 => uint8 ) txStates;\r\n    mapping( bytes32 => uint256 ) txTimestamp;\r\n    event sendCrossTransaction(uint256 fromChainID, uint256 toChainID, string methods, uint256 timestamp, string data);\r\n    event onChangeTxState(bytes32 txHash, uint8 state);\r\n\r\n    constructor() public{\r\n        deployer = msg.sender;\r\n    }\r\n\r\n    /*\r\n    Change from, to data type to uint256\r\n    It is used to be a public key of an account or a node in child chain, but we decide to change it\r\n    to a chain ID in order to make the assumption more reasonable.\r\n    We just know the chain ID then in relay chain we can find corresponding child chain node ip by naming service.\r\n    I remove the check the signature because we check the valid user to invoke this contract by checking the msg.sender.\r\n    Through the blockchain mechanism we can ensure that only the deployer can invoke the smart contract.\r\n    ( or we can regist the node's pubkey by deployer, and we can just check the msg.sender if it is in the list. )\r\n    */\r\n    function sendCrossChainTransaction(uint256 fromChainID, uint256 toChainID, string memory methods,\r\n                                                        string memory data, uint256 timestamp) public {\r\n        require(msg.sender == deployer, \"The account is not approved to invoke this function\");\r\n        bytes32 txHash = keccak256(abi.encodePacked(fromChainID, toChainID, methods, data));\r\n        txStates[txHash] = uint8(State.PRE_PREPARE);\r\n        txTimestamp[txHash] = timestamp;\r\n        emit sendCrossTransaction(fromChainID, toChainID, methods, timestamp, data);\r\n    }\r\n\r\n    function changeTxState(bytes32 txHash, uint8 state, uint256 timestamp) public {\r\n        require(msg.sender == deployer, \"The account is not approved to invoke this function\");\r\n        txStates[txHash] = state;\r\n        txTimestamp[txHash] = timestamp;\r\n        emit onChangeTxState(txHash, state);\r\n    }\r\n\r\n    function getTxInsertTime(bytes32 txHash) public view returns ( uint256 time ) {\r\n        return txTimestamp[txHash];\r\n    }\r\n\r\n    function getTxRecentState(bytes32 txHash) public view returns (uint8 state) {\r\n        return txStates[txHash];\r\n    }\r\n\r\n}",
  "sourcePath": "C:\\Users\\wangm\\Desktop\\Work\\ParentChain\\contracts\\CrossChainTransaction.sol",
  "compiler": {
    "name": "solc",
    "version": "0.5.16+commit.9c3226ce.Emscripten.clang"
  },
  "schemaVersion": "3.1.0",
  "updatedAt": "2020-06-09T10:50:39.655Z",
  "networkType": "ethereum",
  "devdoc": {
    "methods": {}
  },
  "userdoc": {
    "methods": {}
  }
}