{
  "contractName": "NamingService",
  "abi": [
    {
      "inputs": [],
      "payable": false,
      "stateMutability": "nonpayable",
      "type": "constructor"
    },
    {
      "anonymous": false,
      "inputs": [
        {
          "indexed": false,
          "internalType": "uint8",
          "name": "id",
          "type": "uint8"
        },
        {
          "indexed": false,
          "internalType": "string",
          "name": "ip",
          "type": "string"
        }
      ],
      "name": "findChain",
      "type": "event"
    },
    {
      "constant": false,
      "inputs": [
        {
          "internalType": "address",
          "name": "account",
          "type": "address"
        },
        {
          "internalType": "uint256",
          "name": "chainID",
          "type": "uint256"
        },
        {
          "internalType": "string",
          "name": "ip",
          "type": "string"
        }
      ],
      "name": "register",
      "outputs": [],
      "payable": false,
      "stateMutability": "nonpayable",
      "type": "function"
    },
    {
      "constant": true,
      "inputs": [
        {
          "internalType": "uint256",
          "name": "chainID",
          "type": "uint256"
        }
      ],
      "name": "findIpByChainID",
      "outputs": [
        {
          "internalType": "string",
          "name": "ip",
          "type": "string"
        }
      ],
      "payable": false,
      "stateMutability": "view",
      "type": "function"
    }
  ],
  "bytecode": "0x608060405234801561001057600080fd5b5033600260006101000a81548173ffffffffffffffffffffffffffffffffffffffff021916908373ffffffffffffffffffffffffffffffffffffffff160217905550610437806100616000396000f3fe608060405234801561001057600080fd5b50600436106100365760003560e01c8063c11bd8ed1461003b578063f11b1b88146100e2575b600080fd5b6100676004803603602081101561005157600080fd5b81019080803590602001909291905050506101c7565b6040518080602001828103825283818151815260200191508051906020019080838360005b838110156100a757808201518184015260208101905061008c565b50505050905090810190601f1680156100d45780820380516001836020036101000a031916815260200191505b509250505060405180910390f35b6101c5600480360360608110156100f857600080fd5b81019080803573ffffffffffffffffffffffffffffffffffffffff169060200190929190803590602001909291908035906020019064010000000081111561013f57600080fd5b82018360208201111561015157600080fd5b8035906020019184600183028401116401000000008311171561017357600080fd5b91908080601f016020809104026020016040519081016040528093929190818152602001838380828437600081840152601f19601f820116905080830192505050505050509192919290505050610292565b005b6060600160008381526020019081526020016000206000815481106101e857fe5b906000526020600020018054600181600116156101000203166002900480601f0160208091040260200160405190810160405280929190818152602001828054600181600116156101000203166002900480156102865780601f1061025b57610100808354040283529160200191610286565b820191906000526020600020905b81548152906001019060200180831161026957829003601f168201915b50505050509050919050565b6000808381526020019081526020016000208390806001815401808255809150509060018203906000526020600020016000909192909190916101000a81548173ffffffffffffffffffffffffffffffffffffffff021916908373ffffffffffffffffffffffffffffffffffffffff160217905550506001600083815260200190815260200160002081908060018154018082558091505090600182039060005260206000200160009091929091909150908051906020019061035692919061035d565b5050505050565b828054600181600116156101000203166002900490600052602060002090601f016020900481019282601f1061039e57805160ff19168380011785556103cc565b828001600101855582156103cc579182015b828111156103cb5782518255916020019190600101906103b0565b5b5090506103d991906103dd565b5090565b6103ff91905b808211156103fb5760008160009055506001016103e3565b5090565b9056fea265627a7a723158205494d873c51fee2379f26560565b6872ef5464ce1abdefb9a82dac3e25646b9d64736f6c63430005100032",
  "source": "pragma solidity >=0.4.21 <0.7.0;\r\n\r\n\r\ncontract NamingService {\r\n    mapping( uint256 => address[] ) chainIDToAccount;\r\n    mapping( uint256 => string[] ) chainIDToIP;\r\n    address admin;\r\n    event findChain(uint8 id, string ip);\r\n    constructor() public {\r\n        admin = msg.sender;\r\n    }\r\n    function register(address account, uint256 chainID, string memory ip) public {\r\n        chainIDToAccount[chainID].push(account);\r\n        chainIDToIP[chainID].push(ip);\r\n    }\r\n    function findIpByChainID(uint256 chainID) public view returns (string memory ip) {\r\n        return chainIDToIP[chainID][0];\r\n    }\r\n\r\n}\r\n\r\n\r\n\r\n",
  "sourcePath": "C:\\Users\\wangm\\Desktop\\Work\\ParentChain\\contracts\\NamingService.sol",
  "compiler": {
    "name": "solc",
    "version": "0.5.16+commit.9c3226ce.Emscripten.clang"
  },
  "schemaVersion": "3.1.0",
  "updatedAt": "2020-06-09T10:50:39.666Z",
  "networkType": "ethereum",
  "devdoc": {
    "methods": {}
  },
  "userdoc": {
    "methods": {}
  }
}